:020000040000FA
:040000008A110D282C
:10000800FE00030E83120313A0000A08A1008A153C
:100018002F2E8A110F2883018A11152F831203139B
:100028002E088039B3003308B8002E08B300330710
:10003800B4003408BE00AD1F2228232824283E140B
:100048003E0803192828292838283E0A031D2D2888
:100058002E2836280030AE000030AD000030AC004D
:100068000030AB00AD1740280030AE000030AD00C6
:100078000030AC000030AB0032088039B3003308E0
:10008800B8063208B3003307B4003408BD00B11F06
:100098004E284F2850283D143D0803195428552848
:1000A80064283D0A031D59285A2862280030B200E6
:1000B8000030B1000030B0000030AF00B1176C283C
:1000C8000030B2000030B1000030B0000030AF00A6
:1000D8003D0803197028712876283E08031D7528E5
:1000E80076287F280030AE000030AD000030AC002C
:1000F8000030AB00602B2B08B3003308A200310896
:100108008A155D268A11831203132308C400220866
:10011800C3004308B300B401B501B6013608BC00FA
:100128003508BB003408BA003308B9004408B300E6
:10013800B401B501B6013608C2003508C10034085B
:10014800C0003308BF002C08B3003308A2003008F1
:100158008A155D268A11831203132308C400220816
:10016800C3004308B300B401B501B6013308B907A9
:10017800340803110318013E0319C328BA073508C8
:1001880003110318013E0319CA28BB0736080311D7
:100198000318013E0319D128BC074408B300B40171
:1001A800B501B6013308BF07340803110318013E2F
:1001B8000319DF28C007350803110318013E031986
:1001C800E628C107360803110318013E0319ED2874
:1001D800C2072D08B3003308A2002F088A155D2630
:1001E8008A11831203132308C4002208C30043089A
:1001F800B300B401B501B6013308B90734080311D7
:100208000318013E03190929BA0735080311031811
:10021800013E03191029BB07360803110318013ED4
:1002280003191729BC074408B300B401B501B60186
:100238003308BF07340803110318013E03192529A1
:10024800C007350803110318013E03192C29C107FB
:10025800360803110318013E03193329C207083071
:10026800B3000310B90DBA0DBB0DBC0DB30B352986
:100278002C08B3003308A2002F088A155D268A11BE
:10028800831203132308C4002208C3004308B300E1
:100298004408B400B501B6013308B907340803119E
:1002A8000318013E03195929BA0735080311031821
:1002B800013E03196029BB07360803110318013EE4
:1002C80003196729BC072B08B3003308A2003008BC
:1002D8008A155D268A11831203132308C400220895
:1002E800C3004308B3004408B400B501B60133089D
:1002F800B907340803110318013E03198429BA0702
:10030800350803110318013E03198B29BB0736086A
:1003180003110318013E03199229BC070830B300E2
:100328000310B90DBA0DBB0DBC0DB30B94292B08E6
:10033800B3003308A2002F088A155D268A1183129C
:1003480003132308C4002208C3004308B300440869
:10035800B400B501B6013308B9073408031103180E
:10036800013E0319B829BA07350803110318013EDD
:100378000319BF29BB07360803110318013E0319E7
:10038800C629BC072C08B3003308A20031088A1517
:100398005D268A11831203132308C4002208C300B0
:1003A8004308B3004408B400B501B6013308BF07D9
:1003B800340803110318013E0319E329C00735085F
:1003C80003110318013E0319EA29C107360803116E
:1003D8000318013E0319F129C2072D08B300330899
:1003E800A20030088A155D268A1183120313230898
:1003F800C4002208C3004308B3004408B400B50190
:10040800B6013308BF07340803110318013E031966
:100418000E2AC007350803110318013E0319152ACF
:10042800C107360803110318013E03191C2AC20725
:100438002D08B3003308A20031088A155D268A11F9
:10044800831203132308C4002208C3004308B3001F
:100458004408B400B501B60108300310B30DB40D5B
:10046800B50DB60DFF3E031D312A3308BF0734080A
:1004780003110318013E0319422AC0073508031166
:100488000318013E0319492AC10736080311031846
:10049800013E0319502AC2073908B3003A08B400CC
:1004A8003B08B5003C08B60018300310B60CB50C74
:1004B800B40CB30CFF3E031D592A3308BF07340898
:1004C80003110318013E03196A2AC00735080311EE
:1004D8000318013E0319712AC107360803110318CE
:1004E800013E0319782AC2070830B3000310B90D7A
:1004F800BA0DBB0DBC0DB30B7A2A3E083D07B300FD
:10050800B401B40D3308823EC30034080318013E19
:10051800FF3EC400AC2A0130B3000310BF0DC00D6C
:10052800C10DC20DB30B912ABC1F9B2A9C2A9D2A80
:100538003F140130B3000310B90DBA0DBB0DBC0D4B
:10054800B30B9F2AFF30C3070318C40AFF30C40740
:10055800C11FAF2AB02A8F2ABD01BC1FB42AB52AF1
:10056800D12AFF303905B300FF303A05B400FF3017
:100578003B05B5007F303C05B60036083504340429
:1005880033040319C82AC92ACC2ABD01BD0AD12AB5
:100598003F1CCF2AD02AD12AC92A3D080319D52AB7
:1005A800D62A072B0130BF07003003180130C007D7
:1005B800003003180130C107003003180130C207AA
:1005C800421CE72AE82A072B3F08B3004008B4007A
:1005D8004108B5004208B6000130B700360DB60C28
:1005E800B50CB40CB30CB70BF22A3608C2003508A8
:1005F800C1003408C0003308BF000130C307031826
:10060800C40A0030C4074408803AFF0080307F02E3
:10061800031D102BFF304302031C132B142B1F2B1D
:100628007F3083120313C2008030C1000030C00045
:100638000030BF00542B831203134408803AFF0094
:1006480080307F02031D2A2B0130430203182D2B13
:100658002E2B3A2B003083120313C2000030C10046
:100668000030C0000030BF00B801542B83120313C0
:100678004308B3003308BE00FF30BF05FF30C00594
:100688007F30C1050030C2053E1C4B2B4C2B4D2B37
:10069800C1173E08B3000310330CB4003408C2007D
:1006A8003808B3003308C2044208AE004108AD0060
:1006B8004008AC003F08AB0008008312031325086C
:1006C8008039AA002A08B2002508AA002A07AB0028
:1006D8002B08B400A41F712B722B732B341434080D
:1006E8000319772B782B882B340A031D7C2B7D2B41
:1006F800852B0030A5000030A4000030A300003096
:10070800A200A417A501902B0030A5000030A4007A
:100718000030A3000030A20029088039AA002A0866
:10072800B3003308320603199A2B9B2B9C2B3217E4
:100738002908AA002A07AB002B08B300A81FA52B7D
:10074800A62BA72B331433080319AB2BAC2BBC2BCC
:10075800330A031DB02BB12BB92B0030A900003090
:10076800A8000030A7000030A600A817A901C42BD4
:100778000030A9000030A8000030A7000030A60013
:10078800340833020318C92BCA2B0E2C321FCD2B69
:10079800CE2BD22B8030AA002A08B2063408AA0031
:1007A8002A08B5003308AA002A08B4003508AA00A8
:1007B8002A08B3002208AA002A08B5002608AA00B9
:1007C8002A08A2003508AA002A08A6002308AA00B9
:1007D8002A08B5002708AA002A08A3003508AA0095
:1007E8002A08A7002408AA002A08B5002808AA0091
:1007F8002A08A4003508AA002A08A8002508AA0083
:100808002A08B5002908AA002A08A5003508AA0060
:100818002A08A900B5013308AA00AB012B08AD00CE
:1008280034082A02AC00031CAD032D08803AFF00EF
:1008380080307F02031D222C1A302C02031C252C29
:10084800262C632C83120313250824042304220472
:10085800031D2F2C312C0130322C0030AA002A081D
:10086800B5000030A5000030A4000030A30000301F
:10087800A2003308AA002A08B4006B2C351C452CAA
:10088800462C4F2C3508AA0003102A0C0138AB005F
:100898002B08B500512C0310B50C221C542C552CD8
:1008A800562CB5170130AA00250DA50CA40CA30CD5
:1008B800A20CAA0B582C0130AA002A08B4078312EC
:1008C800031333083402031C6A2C6B2C422C321B92
:1008D8006E2C6F2CBA2C3408031D732C742C7D2CB1
:1008E8000030A5000030A4000030A3000030A200B2
:1008F800E82D2608A207270803110318013E03194B
:10090800862CA307280803110318013E03198D2C10
:10091800A407290803110318013E0319942CA507FD
:10092800251C972C982C6E2D351C9B2C9C2CA52CAB
:100938003508AA0003102A0C0138AB002B08B500B3
:10094800A72C0310B50C221CAA2CAB2CAC2CB51769
:100958000130AA00250DA50CA40CA30CA20CAA0B0F
:10096800AE2C0130AA002A08B4076E2D2508803A5B
:10097800FF002908803A7F02031DCC2C2808240296
:10098800031DCC2C27082302031DCC2C2608220289
:100998000318CF2CD02C282DFF30AA00FF30AB0035
:1009A800FF30AC00FF30AD002608AE002708AF00CE
:1009B8002808B0002908B1002208AE022308031C49
:1009C800230FE72CE82CAF022408031C240FED2C7E
:1009D800EE2CB0022508031C250FF32CF42CB102D1
:1009E8002E08AA072F0803182F0FFB2CFC2CAB0787
:1009F80030080318300F012D022DAC0731080318F9
:100A0800310AAD072D08A5002C08A4002B08A30067
:100A18002A08A2008030AA002A08B206B509B50A39
:100A28003508031D182D192D362D0130A207003069
:100A380003180130A307003003180130A407003061
:100A480003180130A507362D2608A2022708031C23
:100A5800270FA3022808031C280FA4022908031C37
:100A6800290FA5022508240423042204031D3D2D73
:100A78003E2D6A2D3508031D422D432D6A2D003069
:100A8800A5000030A4000030A3000030A200E82D2B
:100A98000130AA000310A20DA30DA40DA50DAA0BE9
:100AA8004E2DB51F582D592D5A2D2214351C5D2D4C
:100AB8005E2D612D0314B50D632D0310B50D34089B
:100AC8000319672D682D6A2D0130B402A41F6D2DFE
:100AD8006E2D4C2DB301B51F722D732D812D350848
:100AE8007F390319782D792D7C2DB301B30A812D17
:100AF800221C7F2D802D812D792D33080319852DFA
:100B0800862DBA2D0130A207003003180130A30743
:100B1800003003180130A407003003180130A5077E
:100B2800251C972D982DBA2D2208AA002308AB0062
:100B38002408AC002508AD000130AE002D0DAD0C29
:100B4800AC0CAB0CAA0CAE0BA22D2D08A5002C08E2
:100B5800A4002B08A3002A08A200340A0319B52D03
:100B6800B62DBA2D0130AA002A08B407340A031991
:100B7800BE2DBF2DC42D3408031DC32DC42DD22D69
:100B88000030A5000030A4000030A3000030A2000F
:100B98003408031DD02DD12DD22DB201341CD52DF2
:100BA800D62DD82DA417DC2D7F30AA002A08A4053D
:100BB8003408AA0003102A0CAB002B08A500B21FAA
:100BC800E62DE72DE82DA517080083120313C500AD
:100BD8003A30BE003E08C600022F25304C060319E5
:100BE800F62DF72DFC2D4C088A11F8278A11022FB3
:100BF800C701FF2D47160130C507FF3045078400A0
:100C08008A1500208A11CC00BE00BF013F08003AB7
:100C180003190F2E022F3E08003A0319142F643AC5
:100C280003191D2E0D3A03191D2E053A0319FE2D21
:100C3800022F471E202E212E342E460884008313AF
:100C48000008C800840A0008C900840A0008CA000D
:100C5800840A0008CB000430BE003E08C607492EAF
:100C68004608840083130008BE00840A0008BF00F9
:100C78003E08C8003F08C9000030C91BFF30CA0041
:100C8800CB000230BE003E08C607CB1F4C2E4D2EAF
:100C98005C2E0330BE003E08C704C809C909CA094A
:100CA800CB09C80A0319C90A0319CA0A0319CB0AC6
:100CB800CC01CC0A4C08BE0001300310BE0DFF3E2B
:100CC800031D612E03103E0D013E84008A1500208D
:100CD8008A11BF008A1500208A11C0008A150020D9
:100CE8008A11C1008A1500208A11C20042084B02ED
:100CF800031D882E41084A02031D882E4008490218
:100D0800031D882E3F08480203188B2E8C2E8D2E2B
:100D1800972E0130BE003E08CC070A304C06031D52
:100D2800962E972E5E2E4708033903199C2E9D2E6A
:100D3800A12E2D308A11F8278A11831203134C082B
:100D4800BE00BF013E08C3003F08C400F22E0030B9
:100D5800B3000030B2000030B1000A30B0004308E0
:100D6800BE0001300310BE0DFF3E031DB62E03105A
:100D78003E0D013E84008A1500208A11A2008A15C2
:100D880000208A11A3008A1500208A11A4008A1560
:100D980000208A11A5004B08A9004A08A8004908A4
:100DA800A7004808A6008A15DC268A1183120313B7
:100DB8002508B7002408B6002308B5002208B400A7
:100DC8008A1586268A11831203133008303EBF0025
:100DD8003F08CC004C088A11F8278A11FF3083128B
:100DE8000313C3070318C40AFF30C407430A031DCB
:100DF800012F440A031D012F022FAB2E013083124D
:100E08000313C507FF30450784008A1500208A119F
:100E1800BE003E08CC004C08031D132F142FF12DE3
:100E28000800013083120313DD000030DE00D50115
:100E3800D601D701D8010030D4000030D3000030EB
:100E4800D2000030D10004308316031387008312C8
:100E580003139010101405309700071D342F352FF9
:100E6800312F5D035E04031D3A2F3B2F402F1608D8
:100E7800D6001508D5004B2F02305D065E04031D11
:100E8800462F472F4B2F1608D8001508D7000130DA
:100E9800DD070318DE0A0030DE0703305D065E0456
:100EA800031D572F582F312F5508A2005608A300AD
:100EB8000030A31BFF30A400A50001308A15442789
:100EC8008A11831203132508B9002408B8002308DF
:100ED800B7002208B6005708A2005808A30000303F
:100EE800A31BFF30A400A50001308A1544278A11EE
:100EF800831203132508BD002408BC002308BB0087
:100F08002208BA008A153B268A118312031339086E
:100F1800DC003808DB003708DA003608D90034303E
:100F2800AE005630AD00BF30AC009530AB005C0869
:100F3800B2005B08B1005A08B0005908AF008A1126
:100F480012208A11831203132E08DC002D08DB00FF
:100F58002C08DA002B08D9004030AE000030AD0074
:100F68000030AC000030AB005C08B2005B08B10098
:100F78005A08B0005908AF008A1112208A1183124A
:100F880003132E08D0002D08CF002C08CE002B0804
:100F9800CD004030AE004930AD000F30AC00D0304D
:100FA800AB005008B2004F08B1004E08B0004D0821
:100FB800AF008A1112208A11831203132E08D4005D
:100FC8002D08D3002C08D2002B08D1005408BD00EE
:100FD8005308BC005208BB005108BA0029308A11D6
:0A0FE800E9258A118A110D2808007E
:1010000008308A000408840A82070034013400345E
:10101000003400340A3400340034003464340034C2
:1010200000340034E83403340034003410342734FE
:1010300000340034A0348634013400344034423467
:101040000F34003480349634983400340034E13462
:10105000F53405340034CA349A343B3425346C34C6
:0410600064340034C0
:101C5E000C1D322E332E342E0C1121088A00200E2C
:101C6E008300FE0E7E0E0900803083120313B90628
:101C7E003D08A5003C08A4003B08A3003A08A200BA
:101C8E003908A9003808A8003708A7003608A600AA
:101C9E008A1161238A15831203132508B9002408BB
:101CAE00B8002308B7002208B600080083120313F9
:101CBE00AA00A601A7012208A400A5012408A800D5
:101CCE002508A9002A1C6C2E6D2E732E2808A60737
:101CDE000318A70A2908A70701300310A80DA90D9C
:101CEE00FF3E031D742E0310AA0C2A08031D802E1E
:101CFE00812E692E2708A3002608A2000800831251
:101D0E000313330832043104300403198F2E902E3E
:101D1E00D32EB901B90AA02E0130B8000310B00DB0
:101D2E00B10DB20DB30DB80B952E0130B8003808B9
:101D3E00B907B31FA32EA42E932E33083702031D0B
:101D4E00B22E32083602031DB22E31083502031DA3
:101D5E00B22E30083402031CB52EB62EC42E300817
:101D6E00B4023108031C310FB5023208031C320FC6
:101D7E00B6023308031C330FB70201300310B30C45
:101D8E00B20CB10CB00CFF3E031DC52E0130B902D2
:101D9E00031DD22ED32EA42E3708B3003608B20060
:101DAE003508B1003408B000080000308312031368
:101DBE00AE000030AD000030AC000030AB002508A6
:101DCE002404230422040319ED2EEE2E3B2FAF0123
:101DDE00AF0AFE2E0130AA000310A20DA30DA40D12
:101DEE00A50DAA0BF32E0130AA002A08AF07A51FD6
:101DFE00012F022FF12E0130AA000310AB0DAC0DF6
:101E0E00AD0DAE0DAA0B042F25082902031D192FA7
:101E1E0024082802031D192F23082702031D192F3A
:101E2E0022082602031C1C2F1D2F2C2F2208A6026F
:101E3E002308031C230FA7022408031C240FA80247
:101E4E002508031C250FA9022B1401300310A50C25
:101E5E00A40CA30CA20CFF3E031D2D2F0130AF02CC
:101E6E00031D3A2F3B2F022F2E08A5002D08A4008C
:101E7E002C08A3002B08A200080083120313AA004B
:101E8E002A0803194B2F4C2F602FA51F4F2F502FB1
:101E9E00602F2209AC002309AD002409AE002509EC
:101EAE00AF00AC0A0319AD0A0319AE0A0319AF0A43
:101EBE00682F2508AF002408AE002308AD002208C5
:101ECE00AC002508240423042204031D6F2F702F59
:101EDE00792F0030A5000030A4000030A3000030A0
:101EEE00A200FF2F9630A6002608AB008B2F0130E4
:101EFE00A6002608AB0701300310AF0CAE0CAD0CDC
:101F0E00AC0CFF3E031D832FFE302F05031D902FBB
:101F1E00912F7E2FAD2F0130A6002608AB07013082
:101F2E00AC07003003180130AD0700300318013044
:101F3E00AE07003003180130AF0701300310AF0CAD
:101F4E00AE0CAD0CAC0CFF3E031DA52FFF302F05C4
:101F5E00031DB22FB32F922FBF2F0130AB020130D2
:101F6E00A6000310AC0DAD0DAE0DAF0DA60BB82F28
:101F7E00AE1BC22FC32FC92F02302B020318C82F3E
:101F8E00C92FB42F2B18CC2FCD2FD52FFF30AC054A
:101F9E00FF30AD057F30AE05FF30AF050310AB0C43
:101FAE002B08A600A701A801A90118300310A60D41
:101FBE00A70DA80DA90DFF3E031DDD2F2608AC04AD
:101FCE002708AD042808AE042908AF042A0803190F
:101FDE00F12FF22FF72FA51FF52FF62FF72FAF1793
:101FEE002F08A5002E08A4002D08A3002C08A2007F
:021FFE000800D9
:00000001FF
