:020000040000FA
:100000008A11112801340034FE00030E83120313F9
:10001000DC000408DD000A08DE007F08DF008A112A
:10002000FC2D8A1113288A1102208A11F9008A11E5
:1000300003208A11FA0083136030840079308A111A
:10004000F7278A1183018A152B2E831203132C089C
:100050008039B1003108B6002C08B1003107B20078
:100060003208BC00AB1F3528362837283C143C0822
:1000700003193B283C284B283C0A031D40284128F3
:1000800049280030AC000030AB000030AA0000303E
:10009000A900AB1753280030AC000030AB00003093
:1000A000AA000030A90030088039B1003108B60636
:1000B0003008B1003107B2003208BB00AF1F612821
:1000C000622863283B143B080319672868287728AF
:1000D0003B0A031D6C286D2875280030B0000030E5
:1000E000AF000030AE000030AD00AF177F28003009
:1000F000B0000030AF000030AE000030AD003B0873
:1001000003198328842889283C08031D8828892806
:1001100092280030AC000030AB000030AA00003064
:10012000A900732B2908B1003108A0002F088A15F7
:1001300062268A11831203132108C2002008C1001D
:100140004108B100B201B301B4013408BA00330868
:10015000B9003208B8003108B7004208B100B20156
:10016000B301B4013408C0003308BF003208BE0038
:100170003108BD002A08B1003108A0002E088A15F8
:1001800062268A11831203132108C2002008C100CD
:100190004108B100B201B301B4013108B707320818
:1001A00003110318013E0319D628B80733080311B9
:1001B0000318013E0319DD28B90734080311031899
:1001C000013E0319E428BA074208B100B201B301A5
:1001D000B4013108BD07320803110318013E0319A9
:1001E000F228BE07330803110318013E0319F9284A
:1001F000BF07340803110318013E03190029C00783
:100200002B08B1003108A0002D088A1562268A113A
:10021000831203132108C2002008C1004108B10065
:10022000B201B301B4013108B70732080311031852
:10023000013E03191C29B807330803110318013EB6
:1002400003192329B907340803110318013E0319C0
:100250002A29BA074208B100B201B301B40131083A
:10026000BD07320803110318013E03193829BE07E0
:10027000330803110318013E03193F29BF0734084F
:1002800003110318013E03194629C0070830B100C5
:100290000310B70DB80DB90DBA0DB10B48292A08D6
:1002A000B1003108A0002D088A1562268A11831238
:1002B00003132108C2002008C1004108B100420810
:1002C000B200B301B4013108B707320803110318B3
:1002D000013E03196C29B807330803110318013EC6
:1002E00003197329B907340803110318013E0319D0
:1002F0007A29BA072908B1003108A0002E088A150A
:1003000062268A11831203132108C2002008C1004B
:100310004108B1004208B200B301B4013108B70787
:10032000320803110318013E03199729B80733084F
:1003300003110318013E03199E29B907340803115C
:100340000318013E0319A529BA070830B1000310AC
:10035000B70DB80DB90DBA0DB10BA7292908B10019
:100360003108A0002D088A1562268A118312031312
:100370002108C2002008C1004108B1004208B200B3
:10038000B301B4013108B707320803110318013E65
:100390000319CB29B807330803110318013E0319C9
:1003A000D229B907340803110318013E0319D929CA
:1003B000BA072A08B1003108A0002F088A15622662
:1003C0008A11831203132108C2002008C1004108CA
:1003D000B1004208B200B301B4013108BD073208D0
:1003E00003110318013E0319F629BE073308031150
:1003F0000318013E0319FD29BF0734080311031830
:10040000013E0319042AC0072B08B1003108A000DF
:100410002E088A1562268A11831203132108C2004E
:100420002008C1004108B1004208B200B301B40184
:100430003108BD07320803110318013E0319212AB0
:10044000BE07330803110318013E0319282ABF070A
:10045000340803110318013E03192F2AC0072B0883
:10046000B1003108A0002F088A1562268A11831274
:1004700003132108C2002008C1004108B10042084E
:10048000B200B301B40108300310B10DB20DB30DC9
:10049000B40DFF3E031D442A3108BD073208031185
:1004A0000318013E0319552ABE0733080311031828
:1004B000013E03195C2ABF07340803110318013EEB
:1004C0000319632AC0073708B1003808B200390899
:1004D000B3003A08B40018300310B40CB30CB20CDB
:1004E000B10CFF3E031D6C2A3108BD073208031111
:1004F0000318013E03197D2ABE07330803110318B0
:10050000013E0319842ABF07340803110318013E72
:1005100003198B2AC0070830B1000310B70DB80DBE
:10052000B90DBA0DB10B8D2A3C083B07B100B201E1
:10053000B20D3108823EC10032080318013EFF3E71
:10054000C200BF2A0130B1000310BD0DBE0DBF0DAA
:10055000C00DB10BA42ABA1FAE2AAF2AB02A3D148F
:100560000130B1000310B70DB80DB90DBA0DB10BC4
:10057000B22AFF30C1070318C20AFF30C207BF1FEB
:10058000C22AC32AA22ABB01BA1FC72AC82AE42A40
:10059000FF303705B100FF303805B200FF303905B4
:1005A000B3007F303A05B400340833043204310418
:1005B0000319DB2ADC2ADF2ABB01BB0AE42A3D1C23
:1005C000E22AE32AE42ADC2A3B080319E82AE92A7A
:1005D0001A2B0130BD07003003180130BE07003070
:1005E00003180130BF07003003180130C007401C5A
:1005F000FA2AFB2A1A2B3D08B1003E08B2003F0838
:10060000B3004008B4000130B500340DB40CB30C95
:10061000B20CB10CB50B052B3408C0003308BF0079
:100620003208BE003108BD000130C1070318C20AFC
:100630000030C2074208803AFF0080307F02031D6D
:10064000232BFF304102031C262B272B322B7F301C
:1006500083120313C0008030BF000030BE000030A2
:10066000BD00672B831203134208803AFF008030DD
:100670007F02031D3D2B013041020318402B412B0B
:100680004D2B003083120313C0000030BF00003038
:10069000BE000030BD00B601672B83120313410872
:1006A000B1003108BC00FF30BD05FF30BE057F3012
:1006B000BF050030C0053C1C5E2B5F2B602BBF17B5
:1006C0003C08B1000310310CB2003208C0003608FB
:1006D000B1003108C0044008AC003F08AB003E0840
:1006E000AA003D08A90008008312031323088039DB
:1006F000A8002808B0002308A8002807A900290896
:10070000B200A21F842B852B862B321432080319CA
:100710008A2B8B2B9B2B320A031D8F2B902B982B14
:100720000030A3000030A2000030A1000030A00083
:10073000A217A301A32B0030A3000030A2000030B9
:10074000A1000030A00027088039A8002808B100C7
:10075000310830060319AD2BAE2BAF2B301727080D
:10076000A8002807A9002908B100A61FB82BB92B9B
:10077000BA2B311431080319BE2BBF2BCF2B310AF2
:10078000031DC32BC42BCC2B0030A7000030A600C8
:100790000030A5000030A400A617A701D72B003019
:1007A000A7000030A6000030A5000030A4003208E9
:1007B00031020318DC2BDD2B212C301FE02BE12B29
:1007C000E52B8030A8002808B0063208A8002808C9
:1007D000B3003108A8002808B2003308A800280890
:1007E000B1002008A8002808B3002408A8002808A1
:1007F000A0003308A8002808A4002108A8002808A1
:10080000B3002508A8002808A1003308A80028087C
:10081000A5002208A8002808B3002608A800280878
:10082000A2003308A8002808A6002308A80028086A
:10083000B3002708A8002808A3003308A800280848
:10084000A700B3013108A800A9012908AB003208AC
:100850002802AA00031CAB032B08803AFF0080305B
:100860007F02031D352C1A302A02031C382C392C28
:10087000762C831203132308220421042004031D71
:10088000422C442C0130452C0030A8002808B3002D
:100890000030A3000030A2000030A1000030A00012
:1008A0003108A8002808B2007E2C331C582C592C83
:1008B000622C3308A8000310280C0138A90029086D
:1008C000B300642C0310B30C201C672C682C692C1B
:1008D000B3170130A800230DA30CA20CA10CA00C8F
:1008E000A80B6B2C0130A8002808B2078312031351
:1008F00031083202031C7D2C7E2C552C301B812CA0
:10090000822CCD2C3208031D862C872C902C003095
:10091000A3000030A2000030A1000030A000FB2D99
:100920002408A007250803110318013E0319992C78
:10093000A107260803110318013E0319A02CA207E2
:10094000270803110318013E0319A72CA307231C32
:10095000AA2CAB2C812D331CAE2CAF2CB82C330819
:10096000A8000310280C0138A9002908B300BA2CEC
:100970000310B30C201CBD2CBE2CBF2CB3170130B0
:10098000A800230DA30CA20CA10CA00CA80BC12C39
:100990000130A8002808B207812D2308803AFF0003
:1009A0002708803A7F02031DDF2C26082202031D40
:1009B000DF2C25082102031DDF2C24082002031848
:1009C000E22CE32C3B2DFF30A800FF30A900FF30C4
:1009D000AA00FF30AB002408AC002508AD002608B3
:1009E000AE002708AF002008AC022108031C210F2D
:1009F000FA2CFB2CAD022208031C220F002D012D26
:100A0000AE022308031C230F062D072DAF022C086E
:100A1000A8072D0803182D0F0E2D0F2DA9072E083E
:100A200003182E0F142D152DAA072F0803182F0AAF
:100A3000AB072B08A3002A08A2002908A100280858
:100A4000A0008030A8002808B006B309B30A330814
:100A5000031D2B2D2C2D492D0130A007003003182C
:100A60000130A107003003180130A207003003183D
:100A70000130A307492D2408A0022508031C250FD7
:100A8000A1022608031C260FA2022708031C270F19
:100A9000A3022308220421042004031D502D512DFC
:100AA0007D2D3308031D552D562D7D2D0030A300BF
:100AB0000030A2000030A1000030A000FB2D01306A
:100AC000A8000310A00DA10DA20DA30DA80B612D70
:100AD000B31F6B2D6C2D6D2D2014331C702D712DBB
:100AE000742D0314B30D762D0310B30D32080319C2
:100AF0007A2D7B2D7D2D0130B202A21F802D812DFC
:100B00005F2DB101B31F852D862D942D33087F39BC
:100B100003198B2D8C2D8F2DB101B10A942D201C22
:100B2000922D932D942D8C2D31080319982D992DEC
:100B3000CD2D0130A007003003180130A10700308F
:100B400003180130A207003003180130A307231C4B
:100B5000AA2DAB2DCD2D2008A8002108A900220820
:100B6000AA002308AB000130AC002B0DAB0CAA0C83
:100B7000A90CA80CAC0BB52D2B08A3002A08A200C9
:100B80002908A1002808A000320A0319C82DC92D80
:100B9000CD2D0130A8002808B207320A0319D12D43
:100BA000D22DD72D3208031DD62DD72DE52D00309F
:100BB000A3000030A2000030A1000030A0003208E5
:100BC000031DE32DE42DE52DB001321CE82DE92DA8
:100BD000EB2DA217EF2D7F30A8002808A2053208C0
:100BE000A8000310280CA9002908A300B01FF92DA4
:100BF000FA2DFB2DA31708000C1DFF2D002EC92E6A
:100C0000831603130C1D052E062EC92E8312031303
:100C100079037A04031D0D2E0E2E152E1508EC00F7
:100C20001608ED00EE01EF01222E023079067A045B
:100C3000031D1B2E1C2E222E1508E8001608E900A5
:100C4000EA01EB010130F9070318FA0A0030FA074C
:100C5000033079067A04031D2E2E2F2EC82E680825
:100C6000D8006908D9006A08DA006B08DB006C0854
:100C7000D8026D08031C6D0F3E2E3F2ED9026E0860
:100C8000031C6E0F442E452EDA026F08031C6F0FF3
:100C90004A2E4B2EDB025B08A3005A08A20059081B
:100CA000A1005808A00001308A1544278A11831238
:100CB00003132308E7002208E6002108E5002008C6
:100CC000E4003430AC005630AB00BF30AA009530A1
:100CD000A9006708B0006608AF006508AE006408A8
:100CE000AD008A1125208A11831203132C08E70016
:100CF0002B08E6002A08E5002908E4006708C6007A
:100D00006608C5006508C4006408C3008A158B2600
:100D10008A11831203134608E3004508E2004408E1
:100D2000E1004308E0006308C6006208C5006108EE
:100D3000C4006008C3007030D8005808C7008A118A
:100D400009278A11013083120313F9000030FA00D9
:100D50000030EB000030EA000030E9000030E8002D
:100D60006B08EF006A08EE006908ED006808EC0007
:100D70000030E3000030E2000030E1000030E0002D
:100D80006308E7006208E6006108E5006008E40027
:100D90000C1183120C1CCD2ECE2EFD2E83160313A8
:100DA0000C1CD32ED42EFD2E013083120313F90018
:100DB0000030FA000030EB000030EA000030E900BB
:100DC0000030E8006B08EF006A08EE006908ED00EB
:100DD0006808EC000030E3000030E2000030E10081
:100DE0000030E0006308E7006208E6006108E50003
:100DF0006008E4008E018F010C1083125F08FF0071
:100E00005E088A005D0884005C0E8300FE0E7E0E84
:100E10000900831203134608A3004508A2004408F2
:100E2000A1004308A0008A15C8268A118312031363
:100E30002108D7002008D6005608A0005708A100B6
:100E40000030A11BFF30A200A30001308A15442707
:100E50008A11831203132308B7002208B600210861
:100E6000B5002008B4004608BB004508BA00440895
:100E7000B9004308B8008A1540268A11831203136B
:100E80003708CD003608CC003508CB003408CA003E
:100E90005608303EC8004708840048088313800085
:100EA0002E30C800470A8400480880000230D40071
:100EB0000030D500403083120313AC000030AB008B
:100EC0000030AA000030A9004D08B0004C08AF0067
:100ED0004B08AE004A08AD008A1125208A11831202
:100EE00003132C08D3002B08D2002A08D1002908AC
:100EF000D0005308A3005208A2005108A1005008D6
:100F0000A0008A15C8268A11831203132108D7006E
:100F10002008D6005608A0005708A1000030A11BE9
:100F2000FF30A200A30001308A1544278A118312E2
:100F300003132308B7002208B6002108B5002008D3
:100F4000B4005308BB005208BA005108B900500859
:100F5000B8008A1540268A11831203133708CD0082
:100F60003608CC003508CB003408CA005708803A50
:100F7000FF0080307F02031DBF2F0130560203188F
:100F8000C22FC32FCA2F303083120313CE0000307C
:100F9000CF00D02F313083120313CE000030CF00AA
:100FA0004E08C80054084707C9004908840048088B
:100FB000831380000130D4070318D50A0030D50709
:100FC0005508803AFF0080307F02031DE92F093069
:100FD0005402031CEC2FED2F5A2F080007308A0013
:100FE0000408840A82070034253463340034640022
:0E0FF0008001840A0406031900340406F82F59
:101C5600043083160313870005308312031397009D
:101C66008B170B17831603130C150C14831203130F
:101C7600901010143D2E8A11112880308312031300
:101C8600B7063B08A3003A08A2003908A1003808A5
:101C9600A0003708A7003608A6003508A5003408B6
:101CA600A4008A1174238A15831203132308B7002C
:101CB6002208B6002108B5002008B40008008312E7
:101CC6000313A800A401A5012008A200A30122086D
:101CD600A6002308A700281C712E722E782E26082F
:101CE600A4070318A50A2708A50701300310A60DA7
:101CF600A70DFF3E031D792E0310A80C2808031D0F
:101D0600852E862E6E2E2508A1002408A000080028
:101D1600403083120313AC000030AB000030AA0041
:101D26000030A9004608B0004508AF004408AE00E0
:101D36004308AD008A1125208A15831203132C0847
:101D4600CA002B08C9002A08C8002908C700403065
:101D5600AC004930AB000F30AA00D030A9004A08C9
:101D6600B0004908AF004808AE004708AD008A1128
:101D760025208A15831203132C08C6002B08C500DC
:101D86002A08C4002908C30008000310831203139D
:101D9600220D230DA4002408AA002A08031DD42E10
:101DA600D52EDE2E0030A3000030A2000030A100A8
:101DB6000030A000432F2008A4002108A500220817
:101DC600A6002308A7001F300310A70CA60CA50C1D
:101DD600A40CFF3E031DE72E2408A8002808A9002E
:101DE600A217FF30A005FF30A105FF30A205003085
:101DF600A3059630AA02AA1F012F022F1C2F2A081C
:101E0600803A973E0318082F092F0A2FD52E013046
:101E16000310A30CA20CA10CA00CFF3E031D0B2F5C
:101E26000130A4002408AA07031D1A2F1B2F0A2F0E
:101E3600332F20302A02031C212F222F2E2FD52E9E
:101E46000130A4000310A00DA10DA20DA30DA40B3B
:101E5600252F0130AA022A08031D322F332F232FE4
:101E660029080319372F382F432FA009A109A209E2
:101E7600A309A00A0319A10A0319A20A0319A30AAE
:101E8600080083120313A800280803194B2F4C2FB0
:101E9600602FA31F4F2F502F602F2009AA00210962
:101EA600AB002209AC002309AD00AA0A0319AB0A4C
:101EB6000319AC0A0319AD0A682F2308AD002208DE
:101EC600AC002108AB002008AA0023082204210444
:101ED6002004031D6F2F702F792F0030A3000030D0
:101EE600A2000030A1000030A000FF2F9630A40011
:101EF6002408A9008B2F0130A4002408A90701306B
:101F06000310AD0CAC0CAB0CAA0CFF3E031D832FCB
:101F1600FE302D05031D902F912F7E2FAD2F013002
:101F2600A4002408A9070130AA07003003180130CD
:101F3600AB07003003180130AC070030031801303E
:101F4600AD0701300310AD0CAC0CAB0CAA0CFF3E78
:101F5600031DA52FFF302D05031DB22FB32F922F82
:101F6600BF2F0130A9020130A4000310AA0DAB0D4A
:101F7600AC0DAD0DA40BB82FAC1BC22FC32FC92FB0
:101F8600023029020318C82FC92FB42F2918CC2FC5
:101F9600CD2FD52FFF30AA05FF30AB057F30AC051E
:101FA600FF30AD050310A90C2908A400A501A60160
:101FB600A70118300310A40DA50DA60DA70DFF3E11
:101FC600031DDD2F2408AA042508AB042608AC044B
:101FD6002708AD0428080319F12FF22FF72FA31FA6
:101FE600F52FF62FF72FAD172D08A3002C08A2000A
:0A1FF6002B08A1002A08A000080033
:00000001FF
